{
  "contractName": "DappToken",
  "abi": [
    {
      "inputs": [],
      "payable": false,
      "stateMutability": "nonpayable",
      "type": "constructor"
    },
    {
      "constant": true,
      "inputs": [],
      "name": "totalSupply",
      "outputs": [
        {
          "internalType": "uint256",
          "name": "",
          "type": "uint256"
        }
      ],
      "payable": false,
      "stateMutability": "view",
      "type": "function"
    }
  ],
  "bytecode": "0x6080604052348015600f57600080fd5b50620f42406000819055506084806100286000396000f3fe6080604052348015600f57600080fd5b506004361060285760003560e01c806318160ddd14602d575b600080fd5b60336049565b6040518082815260200191505060405180910390f35b6000548156fea265627a7a72315820e1c954c230d98c4cbc9cd122a1d92fb1f79d3434ee582b1e0112eb8b75981f7d64736f6c63430005100032",
  "source": "pragma solidity ^0.5.0;\r\n\r\n/**\r\n * The DappToken contract does this and that...\r\n */\r\ncontract DappToken {\r\n\t// Constructor\r\n\t// Set total number of tokens\r\n\t// Read total number of tokens\r\n\tuint256 public totalSupply;\r\n\r\n\tconstructor () public {\r\n\t\ttotalSupply = 1000000;\r\n\r\n\r\n\t}\r\n\r\n\r\n\r\n}\r\n",
  "sourcePath": "C:/Users/Cloudsan/Desktop/Eth Learn/token_sale/contracts/DappToken.sol",
  "compiler": {
    "name": "solc",
    "version": "0.5.16+commit.9c3226ce.Emscripten.clang"
  },
  "schemaVersion": "3.2.3",
  "updatedAt": "2021-02-09T13:04:20.012Z",
  "networkType": "ethereum",
  "devdoc": {
    "methods": {}
  },
  "userdoc": {
    "methods": {},
    "notice": "The DappToken contract does this and that..."
  }
}